{
  "_format": "hh-sol-artifact-1",
  "contractName": "Twitter3",
  "sourceName": "contracts/twitter3.sol",
  "abi": [
    {
      "inputs": [],
      "stateMutability": "payable",
      "type": "constructor"
    },
    {
      "anonymous": false,
      "inputs": [
        {
          "indexed": true,
          "internalType": "address",
          "name": "from",
          "type": "address"
        },
        {
          "indexed": false,
          "internalType": "uint256",
          "name": "timestamp",
          "type": "uint256"
        },
        {
          "indexed": false,
          "internalType": "string",
          "name": "tweet",
          "type": "string"
        }
      ],
      "name": "NewTweet",
      "type": "event"
    },
    {
      "inputs": [],
      "name": "getAllTweets",
      "outputs": [
        {
          "components": [
            {
              "internalType": "address",
              "name": "tweeter",
              "type": "address"
            },
            {
              "internalType": "uint256",
              "name": "timestamp",
              "type": "uint256"
            },
            {
              "internalType": "string",
              "name": "tweet",
              "type": "string"
            }
          ],
          "internalType": "struct Twitter3.Tweet[]",
          "name": "",
          "type": "tuple[]"
        }
      ],
      "stateMutability": "view",
      "type": "function"
    },
    {
      "inputs": [],
      "name": "getTweetsCount",
      "outputs": [
        {
          "internalType": "uint256",
          "name": "",
          "type": "uint256"
        }
      ],
      "stateMutability": "view",
      "type": "function"
    },
    {
      "inputs": [
        {
          "internalType": "address",
          "name": "",
          "type": "address"
        }
      ],
      "name": "lastTweetedAt",
      "outputs": [
        {
          "internalType": "uint256",
          "name": "",
          "type": "uint256"
        }
      ],
      "stateMutability": "view",
      "type": "function"
    },
    {
      "inputs": [
        {
          "internalType": "string",
          "name": "tweetToSaveInBlockChain",
          "type": "string"
        }
      ],
      "name": "tweet",
      "outputs": [],
      "stateMutability": "nonpayable",
      "type": "function"
    }
  ],
  "bytecode": "0x608060405230600160006101000a81548173ffffffffffffffffffffffffffffffffffffffff021916908373ffffffffffffffffffffffffffffffffffffffff160217905550620000ae6040518060a001604052806067815260200162000ec360679139600160009054906101000a900473ffffffffffffffffffffffffffffffffffffffff1673ffffffffffffffffffffffffffffffffffffffff1631620000b460201b620004521760201c565b62000276565b620001568282604051602401620000cd929190620001d5565b6040516020818303038152906040527f9710a9d0000000000000000000000000000000000000000000000000000000007bffffffffffffffffffffffffffffffffffffffffffffffffffffffff19166020820180517bffffffffffffffffffffffffffffffffffffffffffffffffffffffff83818316178352505050506200015a60201b60201c565b5050565b60008151905060006a636f6e736f6c652e6c6f679050602083016000808483855afa5050505050565b6000620001908262000209565b6200019c818562000214565b9350620001ae8185602086016200022f565b620001b98162000265565b840191505092915050565b620001cf8162000225565b82525050565b60006040820190508181036000830152620001f1818562000183565b9050620002026020830184620001c4565b9392505050565b600081519050919050565b600082825260208201905092915050565b6000819050919050565b60005b838110156200024f57808201518184015260208101905062000232565b838111156200025f576000848401525b50505050565b6000601f19601f8301169050919050565b610c3d80620002866000396000f3fe608060405234801561001057600080fd5b506004361061004c5760003560e01c806319a26b8914610051578063532561351461006f578063b281395b1461008d578063fb46d4c5146100bd575b600080fd5b6100596100d9565b60405161006691906108f1565b60405180910390f35b6100776100e2565b604051610084919061087f565b60405180910390f35b6100a760048036038101906100a29190610637565b610233565b6040516100b491906108f1565b60405180910390f35b6100d760048036038101906100d29190610660565b61024b565b005b60008054905090565b60606003805480602002602001604051908101604052809291908181526020016000905b8282101561022a57838290600052602060002090600302016040518060600160405290816000820160009054906101000a900473ffffffffffffffffffffffffffffffffffffffff1673ffffffffffffffffffffffffffffffffffffffff1673ffffffffffffffffffffffffffffffffffffffff1681526020016001820154815260200160028201805461019990610ad7565b80601f01602080910402602001604051908101604052809291908181526020018280546101c590610ad7565b80156102125780601f106101e757610100808354040283529160200191610212565b820191906000526020600020905b8154815290600101906020018083116101f557829003601f168201915b50505050508152505081526020019060010190610106565b50505050905090565b60026020528060005260406000206000915090505481565b42603c600260003373ffffffffffffffffffffffffffffffffffffffff1673ffffffffffffffffffffffffffffffffffffffff168152602001908152602001600020546102989190610a03565b106102d8576040517f08c379a00000000000000000000000000000000000000000000000000000000081526004016102cf906108d1565b60405180910390fd5b42600260003373ffffffffffffffffffffffffffffffffffffffff1673ffffffffffffffffffffffffffffffffffffffff1681526020019081526020016000208190555060008081548092919061032e90610b09565b9190505550600360405180606001604052803373ffffffffffffffffffffffffffffffffffffffff16815260200142815260200183815250908060018154018082558091505060019003906000526020600020906003020160009091909190915060008201518160000160006101000a81548173ffffffffffffffffffffffffffffffffffffffff021916908373ffffffffffffffffffffffffffffffffffffffff1602179055506020820151816001015560408201518160020190805190602001906103fc929190610517565b5050503373ffffffffffffffffffffffffffffffffffffffff167f247b19649778c81aad1923b4b49025b7eed6f664d6a4e802190bfb35724f95a9428360405161044792919061090c565b60405180910390a250565b6104ea82826040516024016104689291906108a1565b6040516020818303038152906040527f9710a9d0000000000000000000000000000000000000000000000000000000007bffffffffffffffffffffffffffffffffffffffffffffffffffffffff19166020820180517bffffffffffffffffffffffffffffffffffffffffffffffffffffffff83818316178352505050506104ee565b5050565b60008151905060006a636f6e736f6c652e6c6f679050602083016000808483855afa5050505050565b82805461052390610ad7565b90600052602060002090601f016020900481019282610545576000855561058c565b82601f1061055e57805160ff191683800117855561058c565b8280016001018555821561058c579182015b8281111561058b578251825591602001919060010190610570565b5b509050610599919061059d565b5090565b5b808211156105b657600081600090555060010161059e565b5090565b60006105cd6105c88461096d565b61093c565b9050828152602081018484840111156105e557600080fd5b6105f0848285610a95565b509392505050565b60008135905061060781610bf0565b92915050565b600082601f83011261061e57600080fd5b813561062e8482602086016105ba565b91505092915050565b60006020828403121561064957600080fd5b6000610657848285016105f8565b91505092915050565b60006020828403121561067257600080fd5b600082013567ffffffffffffffff81111561068c57600080fd5b6106988482850161060d565b91505092915050565b60006106ad8383610811565b905092915050565b6106be81610a59565b82525050565b60006106cf826109ad565b6106d981856109d0565b9350836020820285016106eb8561099d565b8060005b85811015610727578484038952815161070885826106a1565b9450610713836109c3565b925060208a019950506001810190506106ef565b50829750879550505050505092915050565b6000610744826109b8565b61074e81856109e1565b935061075e818560208601610aa4565b61076781610bdf565b840191505092915050565b600061077d826109b8565b61078781856109f2565b9350610797818560208601610aa4565b6107a081610bdf565b840191505092915050565b60006107b8603d836109f2565b91507f576169742031204d696e747320746f20547765657420616761696e202c206c6560008301527f74206574686572206e6f64657320746f20636f6f6c20646f776e203b290000006020830152604082019050919050565b600060608301600083015161082960008601826106b5565b50602083015161083c6020860182610861565b50604083015184820360408601526108548282610739565b9150508091505092915050565b61086a81610a8b565b82525050565b61087981610a8b565b82525050565b6000602082019050818103600083015261089981846106c4565b905092915050565b600060408201905081810360008301526108bb8185610772565b90506108ca6020830184610870565b9392505050565b600060208201905081810360008301526108ea816107ab565b9050919050565b60006020820190506109066000830184610870565b92915050565b60006040820190506109216000830185610870565b81810360208301526109338184610772565b90509392505050565b6000604051905081810181811067ffffffffffffffff8211171561096357610962610bb0565b5b8060405250919050565b600067ffffffffffffffff82111561098857610987610bb0565b5b601f19601f8301169050602081019050919050565b6000819050602082019050919050565b600081519050919050565b600081519050919050565b6000602082019050919050565b600082825260208201905092915050565b600082825260208201905092915050565b600082825260208201905092915050565b6000610a0e82610a8b565b9150610a1983610a8b565b9250827fffffffffffffffffffffffffffffffffffffffffffffffffffffffffffffffff03821115610a4e57610a4d610b52565b5b828201905092915050565b6000610a6482610a6b565b9050919050565b600073ffffffffffffffffffffffffffffffffffffffff82169050919050565b6000819050919050565b82818337600083830152505050565b60005b83811015610ac2578082015181840152602081019050610aa7565b83811115610ad1576000848401525b50505050565b60006002820490506001821680610aef57607f821691505b60208210811415610b0357610b02610b81565b5b50919050565b6000610b1482610a8b565b91507fffffffffffffffffffffffffffffffffffffffffffffffffffffffffffffffff821415610b4757610b46610b52565b5b600182019050919050565b7f4e487b7100000000000000000000000000000000000000000000000000000000600052601160045260246000fd5b7f4e487b7100000000000000000000000000000000000000000000000000000000600052602260045260246000fd5b7f4e487b7100000000000000000000000000000000000000000000000000000000600052604160045260246000fd5b6000601f19601f8301169050919050565b610bf981610a59565b8114610c0457600080fd5b5056fea264697066735822122038f13e4038e62baf021012e9838e58c03bb098f95d8637969c69ae22c158f85064736f6c6343000800003374686973206973207477697474657220332e30202c20796f7520646f6e74206861766520746f20626520736d61727420746f20757365207468697320736d61727420636f6e7472616374202c20796f75722063757272656e742062616c656e6365206973202564",
  "linkReferences": {},
  "deployedLinkReferences": {}
}