{
    "_format": "hh-sol-artifact-1",
    "contractName": "Twitter3",
    "sourceName": "contracts/twitter3.sol",
    "abi": [
        {
            "inputs": [],
            "stateMutability": "nonpayable",
            "type": "constructor"
        },
        {
            "anonymous": false,
            "inputs": [
                {
                    "indexed": true,
                    "internalType": "address",
                    "name": "from",
                    "type": "address"
                },
                {
                    "indexed": false,
                    "internalType": "uint256",
                    "name": "timestamp",
                    "type": "uint256"
                },
                {
                    "indexed": false,
                    "internalType": "string",
                    "name": "tweet",
                    "type": "string"
                }
            ],
            "name": "NewTweet",
            "type": "event"
        },
        {
            "inputs": [],
            "name": "getAllTweets",
            "outputs": [
                {
                    "components": [
                        {
                            "internalType": "address",
                            "name": "tweeter",
                            "type": "address"
                        },
                        {
                            "internalType": "uint256",
                            "name": "timestamp",
                            "type": "uint256"
                        },
                        {
                            "internalType": "string",
                            "name": "tweet",
                            "type": "string"
                        }
                    ],
                    "internalType": "struct Twitter3.Tweet[]",
                    "name": "",
                    "type": "tuple[]"
                }
            ],
            "stateMutability": "view",
            "type": "function"
        },
        {
            "inputs": [],
            "name": "getTweetsCount",
            "outputs": [
                {
                    "internalType": "uint256",
                    "name": "",
                    "type": "uint256"
                }
            ],
            "stateMutability": "view",
            "type": "function"
        },
        {
            "inputs": [
                {
                    "internalType": "string",
                    "name": "tweetToSaveInBlockChain",
                    "type": "string"
                }
            ],
            "name": "tweet",
            "outputs": [],
            "stateMutability": "nonpayable",
            "type": "function"
        }
    ],
    "bytecode": "0x608060405230600160006101000a81548173ffffffffffffffffffffffffffffffffffffffff021916908373ffffffffffffffffffffffffffffffffffffffff1602179055503480156200005257600080fd5b50620000bc6040518060a001604052806067815260200162000c7c60679139600160009054906101000a900473ffffffffffffffffffffffffffffffffffffffff1673ffffffffffffffffffffffffffffffffffffffff1631620000c260201b6200032e1760201c565b62000284565b620001648282604051602401620000db929190620001e3565b6040516020818303038152906040527f9710a9d0000000000000000000000000000000000000000000000000000000007bffffffffffffffffffffffffffffffffffffffffffffffffffffffff19166020820180517bffffffffffffffffffffffffffffffffffffffffffffffffffffffff83818316178352505050506200016860201b60201c565b5050565b60008151905060006a636f6e736f6c652e6c6f679050602083016000808483855afa5050505050565b60006200019e8262000217565b620001aa818562000222565b9350620001bc8185602086016200023d565b620001c78162000273565b840191505092915050565b620001dd8162000233565b82525050565b60006040820190508181036000830152620001ff818562000191565b9050620002106020830184620001d2565b9392505050565b600081519050919050565b600082825260208201905092915050565b6000819050919050565b60005b838110156200025d57808201518184015260208101905062000240565b838111156200026d576000848401525b50505050565b6000601f19601f8301169050919050565b6109e880620002946000396000f3fe608060405234801561001057600080fd5b50600436106100415760003560e01c806319a26b89146100465780635325613514610064578063fb46d4c514610082575b600080fd5b61004e61009e565b60405161005b9190610709565b60405180910390f35b61006c6100a7565b60405161007991906106b7565b60405180910390f35b61009c600480360381019061009791906104fe565b6101f8565b005b60008054905090565b60606002805480602002602001604051908101604052809291908181526020016000905b828210156101ef57838290600052602060002090600302016040518060600160405290816000820160009054906101000a900473ffffffffffffffffffffffffffffffffffffffff1673ffffffffffffffffffffffffffffffffffffffff1673ffffffffffffffffffffffffffffffffffffffff1681526020016001820154815260200160028201805461015e90610899565b80601f016020809104026020016040519081016040528092919081815260200182805461018a90610899565b80156101d75780601f106101ac576101008083540402835291602001916101d7565b820191906000526020600020905b8154815290600101906020018083116101ba57829003601f168201915b505050505081525050815260200190600101906100cb565b50505050905090565b60008081548092919061020a906108cb565b9190505550600260405180606001604052803373ffffffffffffffffffffffffffffffffffffffff16815260200142815260200183815250908060018154018082558091505060019003906000526020600020906003020160009091909190915060008201518160000160006101000a81548173ffffffffffffffffffffffffffffffffffffffff021916908373ffffffffffffffffffffffffffffffffffffffff1602179055506020820151816001015560408201518160020190805190602001906102d89291906103f3565b5050503373ffffffffffffffffffffffffffffffffffffffff167f247b19649778c81aad1923b4b49025b7eed6f664d6a4e802190bfb35724f95a94283604051610323929190610724565b60405180910390a250565b6103c682826040516024016103449291906106d9565b6040516020818303038152906040527f9710a9d0000000000000000000000000000000000000000000000000000000007bffffffffffffffffffffffffffffffffffffffffffffffffffffffff19166020820180517bffffffffffffffffffffffffffffffffffffffffffffffffffffffff83818316178352505050506103ca565b5050565b60008151905060006a636f6e736f6c652e6c6f679050602083016000808483855afa5050505050565b8280546103ff90610899565b90600052602060002090601f0160209004810192826104215760008555610468565b82601f1061043a57805160ff1916838001178555610468565b82800160010185558215610468579182015b8281111561046757825182559160200191906001019061044c565b5b5090506104759190610479565b5090565b5b8082111561049257600081600090555060010161047a565b5090565b60006104a96104a484610785565b610754565b9050828152602081018484840111156104c157600080fd5b6104cc848285610857565b509392505050565b600082601f8301126104e557600080fd5b81356104f5848260208601610496565b91505092915050565b60006020828403121561051057600080fd5b600082013567ffffffffffffffff81111561052a57600080fd5b610536848285016104d4565b91505092915050565b600061054b8383610649565b905092915050565b61055c8161081b565b82525050565b600061056d826107c5565b61057781856107e8565b935083602082028501610589856107b5565b8060005b858110156105c557848403895281516105a6858261053f565b94506105b1836107db565b925060208a0199505060018101905061058d565b50829750879550505050505092915050565b60006105e2826107d0565b6105ec81856107f9565b93506105fc818560208601610866565b610605816109a1565b840191505092915050565b600061061b826107d0565b610625818561080a565b9350610635818560208601610866565b61063e816109a1565b840191505092915050565b60006060830160008301516106616000860182610553565b5060208301516106746020860182610699565b506040830151848203604086015261068c82826105d7565b9150508091505092915050565b6106a28161084d565b82525050565b6106b18161084d565b82525050565b600060208201905081810360008301526106d18184610562565b905092915050565b600060408201905081810360008301526106f38185610610565b905061070260208301846106a8565b9392505050565b600060208201905061071e60008301846106a8565b92915050565b600060408201905061073960008301856106a8565b818103602083015261074b8184610610565b90509392505050565b6000604051905081810181811067ffffffffffffffff8211171561077b5761077a610972565b5b8060405250919050565b600067ffffffffffffffff8211156107a05761079f610972565b5b601f19601f8301169050602081019050919050565b6000819050602082019050919050565b600081519050919050565b600081519050919050565b6000602082019050919050565b600082825260208201905092915050565b600082825260208201905092915050565b600082825260208201905092915050565b60006108268261082d565b9050919050565b600073ffffffffffffffffffffffffffffffffffffffff82169050919050565b6000819050919050565b82818337600083830152505050565b60005b83811015610884578082015181840152602081019050610869565b83811115610893576000848401525b50505050565b600060028204905060018216806108b157607f821691505b602082108114156108c5576108c4610943565b5b50919050565b60006108d68261084d565b91507fffffffffffffffffffffffffffffffffffffffffffffffffffffffffffffffff82141561090957610908610914565b5b600182019050919050565b7f4e487b7100000000000000000000000000000000000000000000000000000000600052601160045260246000fd5b7f4e487b7100000000000000000000000000000000000000000000000000000000600052602260045260246000fd5b7f4e487b7100000000000000000000000000000000000000000000000000000000600052604160045260246000fd5b6000601f19601f830116905091905056fea2646970667358221220c0f57f82d8a4164eb9bd79959baa7d3e72dfef798181fba98f0a31449decb95f64736f6c6343000800003374686973206973207477697474657220332e30202c20796f7520646f6e74206861766520746f20626520736d61727420746f20757365207468697320736d61727420636f6e7472616374202c20796f75722063757272656e742062616c656e6365206973202564",
    "linkReferences": {},
    "deployedLinkReferences": {}
}